:020000040000FA
:02000000F228E4
:040002000034003492
:080008008C000F08031972308F
:1000100081000F0803190E28013085068E0B142865
:100020002A208D0B14288B120C080B110900820753
:1000300011341F342B34373442344D345734613447
:100040006A3472347A3481340034820701340234E1
:10005000043408349400120D820720303828103000
:100060003828083038280430382802303828013041
:100070008E00140808008207203410342034103415
:10008000223424342034203425342B342434523484
:1000900020341034203410342234243420342034DA
:1000A000273431342534573420341034203410347C
:1000B000103420342934373425342B342434293473
:1000C000223424342A341D342A341D34293437345C
:1000D00025342B3427343134253457342C34003430
:1000E00082073734313437343134373431343334B0
:1000F00013343A341D3437343134333413343A340E
:100100001D34373431342C341B342234243422341B
:10011000243422342434233413343A341D34363412
:100120002E34333413343A341D34373431342C34D0
:1001300000348207503408345234093454340A34B9
:1001400055340A3457340C3459340D345B340F347D
:10015000403408344234093444340A3445340A34CF
:1001600047340C3449340D344B340F3430340834B4
:100170003234093434340A3435340A3437340C34E4
:1001800039340D343B340F342034083422340934EC
:1001900024340A3425340A3427340C3429340D34F9
:1001A0002B340F34103408341234093414340A3424
:1001B00015340A3417340C3419340D341B340F340D
:1001C000003408340234093404340A3405340A345F
:1001D00007340C3409340D340B340F342C34003410
:1001E000D0210800850186018316FF308600FE308D
:1001F00085008230810080308B0088018312890164
:100200008801900189010608FE39031D3B21030185
:10021000061C182185180230051904308519013093
:10022000051A0830FF390319022991009221022989
:1002300003012F21061829292B21061C01382B2107
:10024000061C02382B21061C2929061C29292520D9
:100250000800030108009700063095003229970036
:1002600003309500C83096000000960B3429950B9A
:10027000322917080800861C432920308F002030BF
:100280008D0081217229061D4B2922308F002430D8
:100290008D0081217229861D532924308F00293039
:1002A0008D0081217229061E5B2925308F002B309D
:1002B0008D0081217229861E632927308F003130FD
:1002C0008D0081217229061F6B2929308F0037305C
:1002D0008D0081217229861F72292B308F003D30BD
:1002E0008D0081213D30090203187A2905081E3945
:1002F00003193B292C308F0000308D0081218901AA
:1003000008000F08C121890A0D08C121890A8D083A
:10031000031D8C21030108000F08AE218B168B1AD8
:100320008F2908001008A3218F00A3218D008D08BC
:10033000031D9C29900108008C212C308F00033074
:100340008D008C219229100811183B2091187020E3
:10035000111999209119F020900A08009300703922
:100360009200920C920C920C920C83160108F839B0
:100370001204810083120F30130517208F002A20EA
:100380000800880083168B13081555308900AA30A1
:10039000890088148B17081ECB29081283120800C5
:0C03A00089008316081483120808080066
:02400E00F13F80
:00000001FF
